{
  "contractName": "Freelance",
  "abi": [
    {
      "constant": true,
      "inputs": [
        {
          "name": "",
          "type": "address"
        }
      ],
      "name": "freelancers",
      "outputs": [
        {
          "name": "",
          "type": "bool"
        }
      ],
      "payable": false,
      "stateMutability": "view",
      "type": "function"
    },
    {
      "constant": true,
      "inputs": [],
      "name": "candidatesCount",
      "outputs": [
        {
          "name": "",
          "type": "uint256"
        }
      ],
      "payable": false,
      "stateMutability": "view",
      "type": "function"
    },
    {
      "constant": true,
      "inputs": [
        {
          "name": "",
          "type": "uint256"
        }
      ],
      "name": "candidates",
      "outputs": [
        {
          "name": "id",
          "type": "uint256"
        },
        {
          "name": "name",
          "type": "string"
        },
        {
          "name": "price",
          "type": "uint256"
        },
        {
          "name": "pubAddr",
          "type": "address"
        }
      ],
      "payable": false,
      "stateMutability": "view",
      "type": "function"
    },
    {
      "constant": true,
      "inputs": [],
      "name": "oneAddCnt",
      "outputs": [
        {
          "name": "",
          "type": "uint256"
        }
      ],
      "payable": false,
      "stateMutability": "view",
      "type": "function"
    },
    {
      "constant": true,
      "inputs": [],
      "name": "counter",
      "outputs": [
        {
          "name": "",
          "type": "uint256"
        }
      ],
      "payable": false,
      "stateMutability": "view",
      "type": "function"
    },
    {
      "constant": true,
      "inputs": [
        {
          "name": "",
          "type": "address"
        }
      ],
      "name": "project",
      "outputs": [
        {
          "name": "requirements",
          "type": "string"
        },
        {
          "name": "lenghtOfContract",
          "type": "uint256"
        }
      ],
      "payable": false,
      "stateMutability": "view",
      "type": "function"
    },
    {
      "constant": true,
      "inputs": [],
      "name": "projectsCount",
      "outputs": [
        {
          "name": "",
          "type": "uint256"
        }
      ],
      "payable": false,
      "stateMutability": "view",
      "type": "function"
    },
    {
      "inputs": [],
      "payable": true,
      "stateMutability": "payable",
      "type": "constructor"
    },
    {
      "constant": false,
      "inputs": [
        {
          "name": "namef",
          "type": "string"
        },
        {
          "name": "price",
          "type": "uint256"
        }
      ],
      "name": "oneAdd",
      "outputs": [],
      "payable": false,
      "stateMutability": "nonpayable",
      "type": "function"
    },
    {
      "constant": false,
      "inputs": [
        {
          "name": "_freelancerId",
          "type": "uint256"
        }
      ],
      "name": "Pay",
      "outputs": [],
      "payable": true,
      "stateMutability": "payable",
      "type": "function"
    },
    {
      "constant": false,
      "inputs": [
        {
          "name": "_requirements",
          "type": "string"
        },
        {
          "name": "_lenghtOfContract",
          "type": "uint256"
        }
      ],
      "name": "CreateAProject",
      "outputs": [],
      "payable": false,
      "stateMutability": "nonpayable",
      "type": "function"
    }
  ],
  "bytecode": "0x6080604052600a600455600060085533600a60006101000a81548173ffffffffffffffffffffffffffffffffffffffff021916908373ffffffffffffffffffffffffffffffffffffffff16021790555061009e6040805190810160405280600b81526020017f43616e646964617465203100000000000000000000000000000000000000000081525060026100f2640100000000026401000000009004565b6100ed6040805190810160405280600b81526020017f43616e646964617465203200000000000000000000000000000000000000000081525060026100f2640100000000026401000000009004565b610277565b60076000815480929190600101919050555060806040519081016040528060075481526020018381526020018281526020013373ffffffffffffffffffffffffffffffffffffffff168152506003600060075481526020019081526020016000206000820151816000015560208201518160010190805190602001906101799291906101d2565b506040820151816002015560608201518160030160006101000a81548173ffffffffffffffffffffffffffffffffffffffff021916908373ffffffffffffffffffffffffffffffffffffffff1602179055509050505050565b828054600181600116156101000203166002900490600052602060002090601f016020900481019282601f1061021357805160ff1916838001178555610241565b82800160010185558215610241579182015b82811115610240578251825591602001919060010190610225565b5b50905061024e9190610252565b5090565b61027491905b80821115610270576000816000905550600101610258565b5090565b90565b610a32806102866000396000f3006080604052600436106100a4576000357c0100000000000000000000000000000000000000000000000000000000900463ffffffff16806321bd6693146100a95780632d35a8a2146101045780633477ee2e1461012f578063517cdf871461021657806361312cc81461028957806361bc221a146102b45780636f36ea7b146102df578063781a2cca14610352578063838134b614610372578063c73b302e14610435575b600080fd5b3480156100b557600080fd5b506100ea600480360381019080803573ffffffffffffffffffffffffffffffffffffffff169060200190929190505050610460565b604051808215151515815260200191505060405180910390f35b34801561011057600080fd5b50610119610480565b6040518082815260200191505060405180910390f35b34801561013b57600080fd5b5061015a60048036038101908080359060200190929190505050610486565b60405180858152602001806020018481526020018373ffffffffffffffffffffffffffffffffffffffff1673ffffffffffffffffffffffffffffffffffffffff168152602001828103825285818151815260200191508051906020019080838360005b838110156101d85780820151818401526020810190506101bd565b50505050905090810190601f1680156102055780820380516001836020036101000a031916815260200191505b509550505050505060405180910390f35b34801561022257600080fd5b50610287600480360381019080803590602001908201803590602001908080601f01602080910402602001604051908101604052809392919081815260200183838082843782019150505050505091929192908035906020019092919050505061056e565b005b34801561029557600080fd5b5061029e61065a565b6040518082815260200191505060405180910390f35b3480156102c057600080fd5b506102c9610660565b6040518082815260200191505060405180910390f35b3480156102eb57600080fd5b50610350600480360381019080803590602001908201803590602001908080601f016020809104026020016040519081016040528093929190818152602001838380828437820191505050505050919291929080359060200190929190505050610666565b005b61037060048036038101908080359060200190929190505050610714565b005b34801561037e57600080fd5b506103b3600480360381019080803573ffffffffffffffffffffffffffffffffffffffff1690602001909291905050506107bf565b6040518080602001838152602001828103825284818151815260200191508051906020019080838360005b838110156103f95780820151818401526020810190506103de565b50505050905090810190601f1680156104265780820380516001836020036101000a031916815260200191505b50935050505060405180910390f35b34801561044157600080fd5b5061044a61087b565b6040518082815260200191505060405180910390f35b60066020528060005260406000206000915054906101000a900460ff1681565b60075481565b6003602052806000526040600020600091509050806000015490806001018054600181600116156101000203166002900480601f0160208091040260200160405190810160405280929190818152602001828054600181600116156101000203166002900480156105385780601f1061050d57610100808354040283529160200191610538565b820191906000526020600020905b81548152906001019060200180831161051b57829003601f168201915b5050505050908060020154908060030160009054906101000a900473ffffffffffffffffffffffffffffffffffffffff16905084565b600860008154809291906001019190505550600660003373ffffffffffffffffffffffffffffffffffffffff1673ffffffffffffffffffffffffffffffffffffffff16815260200190815260200160002060009054906101000a900460ff1615156105d857600080fd5b604080519081016040528083815260200182815250600560003373ffffffffffffffffffffffffffffffffffffffff1673ffffffffffffffffffffffffffffffffffffffff1681526020019081526020016000206000820151816000019080519060200190610648929190610961565b50602082015181600101559050505050565b60095481565b600b5481565b600b6000815480929190600101919050555060016009541015156106e057600660003373ffffffffffffffffffffffffffffffffffffffff1673ffffffffffffffffffffffffffffffffffffffff16815260200190815260200160002060009054906101000a900460ff16156106db57610710565b61070f565b60096000815480929190600101919050555060045460075410151561070457600080fd5b61070e8282610881565b5b5b5050565b6000808211151561072457600080fd5b600754821115151561073557600080fd5b6003600083815260200190815260200160002060030160009054906101000a900473ffffffffffffffffffffffffffffffffffffffff1690508073ffffffffffffffffffffffffffffffffffffffff166003600084815260200190815260200160002060020154604051808281526020019150506000604051808303816000865af1915050505050565b6005602052806000526040600020600091509050806000018054600181600116156101000203166002900480601f01602080910402602001604051908101604052809291908181526020018280546001816001161561010002031660029004801561086b5780601f106108405761010080835404028352916020019161086b565b820191906000526020600020905b81548152906001019060200180831161084e57829003601f168201915b5050505050908060010154905082565b60085481565b60076000815480929190600101919050555060806040519081016040528060075481526020018381526020018281526020013373ffffffffffffffffffffffffffffffffffffffff16815250600360006007548152602001908152602001600020600082015181600001556020820151816001019080519060200190610908929190610961565b506040820151816002015560608201518160030160006101000a81548173ffffffffffffffffffffffffffffffffffffffff021916908373ffffffffffffffffffffffffffffffffffffffff1602179055509050505050565b828054600181600116156101000203166002900490600052602060002090601f016020900481019282601f106109a257805160ff19168380011785556109d0565b828001600101855582156109d0579182015b828111156109cf5782518255916020019190600101906109b4565b5b5090506109dd91906109e1565b5090565b610a0391905b808211156109ff5760008160009055506001016109e7565b5090565b905600a165627a7a72305820eb3ee1f91e82154ff0fdc23ea1b642a06c5c1534508abc14880ef0bc923c54890029",
  "source": "pragma solidity ^0.4.2;\r\n\r\ncontract Freelance {\r\n    // Model a Candidate\r\n    struct Candidate {\r\n        uint id;\r\n        string name;\r\n        uint price;\r\n        address pubAddr;\r\n        \r\n        \r\n    }\r\n    address masterAddress ;\r\n    uint price;\r\n    // Read/write candidates\r\n    uint winner;\r\n    //Have to store somewhere the projects with the structure elements it has to be string and \r\n    mapping (uint => Candidate) public candidates;\r\n    uint maxCandidates = 10;\r\n    \r\n    struct Projects {\r\n        string requirements;\r\n        uint256 lenghtOfContract;\r\n    }\r\n    \r\n    mapping (address => Projects) public project;\r\n    mapping (address =>bool) public freelancers;\r\n   \r\n    // Store Candidates Count\r\n    uint public candidatesCount ;\r\n    uint public projectsCount = 0;\r\n    uint public oneAddCnt ;\r\n    address owner = msg.sender;\r\n    uint public counter;\r\n    constructor  () public payable {\r\n        addFreelancer(\"Candidate 1\",2);\r\n        addFreelancer(\"Candidate 2\",2);\r\n   \r\n    }\r\n    function oneAdd (string namef,uint256 price) public {\r\n        counter++;\r\n        if(oneAddCnt >= 1)\r\n        {\r\n            if(freelancers[msg.sender]) return ;\r\n        }\r\n        else {\r\n            oneAddCnt ++;\r\n            require(candidatesCount <maxCandidates);\r\n            addFreelancer(namef,price);\r\n        }\r\n        \r\n    }\r\n   \r\n \r\n    function addFreelancer (string _name,uint price) private {\r\n       \r\n        candidatesCount ++;\r\n        candidates[candidatesCount] = Candidate(candidatesCount, _name, price,msg.sender);\r\n    }\r\n    \r\n    function f (uint start,uint daysAfter) private {\r\n        if(now >= start+daysAfter * 2 hours){\r\n            selfdestruct(msg.sender);\r\n    }        \r\n    }\r\n    function Pay (uint256 _freelancerId) public payable  {\r\n        require(_freelancerId > 0) ;\r\n        require(_freelancerId <= candidatesCount);\r\n        //require(msg.sender == owner);\r\n        address hardCodedAddress = candidates[_freelancerId].pubAddr;\r\n\r\n        //hardCodedAddress.transfer(candidates[_freelancerId].price);\r\n        hardCodedAddress.call(candidates[_freelancerId].price);\r\n     //   owner.call(candidates[_freelancerId]);\r\n     \r\n    \r\n    }\r\n    function CreateAProject(string _requirements,uint _lenghtOfContract) public {\r\n        projectsCount++;\r\n       \r\n        require(freelancers[msg.sender]);\r\n        project[msg.sender] = Projects(_requirements,_lenghtOfContract);\r\n        \r\n    }\r\n   \r\n}",
  "sourcePath": "C:\\Users\\Mechkostuk\\Desktop\\FreelancerdApp\\contracts\\Freelance.sol",
  "compiler": {
    "name": "solc",
    "version": "0.4.24+commit.e67f0147.Emscripten.clang"
  },
  "schemaVersion": "2.0.1",
  "updatedAt": "2018-07-13T23:02:22.125Z"
}